:020000040800F2
:100000004807002089010008AD140008A914000861
:10001000AB1400088F020008091800080000000057
:100020000000000000000000000000008D17000824
:100030009D02000800000000AF1400088F170008A0
:10004000A3010008A3010008A3010008A301000800
:10005000A3010008A3010008A3010008A3010008F0
:10006000A3010008A3010008A3010008A3010008E0
:10007000A3010008A3010008A3010008A3010008D0
:10008000A3010008A3010008A3010008A3010008C0
:10009000FD17000891020008A3010008A301000851
:1000A000A3010008A3010008A3010008A3010008A0
:1000B000A3010008A3010008A3010008A301000890
:1000C000A3010008A3010008A301000861150008AE
:1000D000A3010008A3010008A3010008A301000870
:1000E000A3010008A3010008A301000800F002F822
:1000F00000F03AF80AA090E8000C82448344AAF188
:100100000107DA4501D100F02FF8AFF2090EBAE885
:100110000F0013F0010F18BFFB1A43F0010318473B
:10012000B01D0000D01D0000103A24BF78C878C16F
:10013000FAD8520724BF30C830C144BF04680C60ED
:10014000704700000023002400250026103A28BF35
:1001500078C1FBD8520728BF30C148BF0B60704739
:100160001FB51FBD10B510BD00F058F81146FFF7C0
:10017000F7FF01F05DFB00F076F803B4FFF7F2FF44
:1001800003BC00F07DF8000009488047094800479B
:10019000FEE7FEE7FEE7FEE7FEE7FEE7FEE7FEE737
:1001A000FEE7FEE704480549054A064B7047000094
:1001B000F9170008ED00000848010020480700205A
:1001C00048030020480300204FF0000200B513460A
:1001D00094469646203922BFA0E80C50A0E80C5067
:1001E000B1F12001BFF4F7AF090728BFA0E80C5018
:1001F00048BF0CC05DF804EB890028BF40F8042B11
:1002000008BF704748BF20F8022B11F0804F18BF7D
:1002100000F8012B7047704770477047754600F033
:100220002BF8AE4605006946534620F00700854688
:1002300018B020B5FFF7B6FFBDE820404FF000062C
:100240004FF000074FF000084FF0000BAC46ACE851
:10025000C009ACE8C009ACE8C009ACE8C00921F0AD
:1002600007018D46704710B50446AFF30080204665
:10027000BDE81040FFF781BF004870471000002024
:1002800001491820ABBEFEE7260002007047FEE7DA
:10029000014800F053B900BFC4000020704790F837
:1002A0002020013A012A04D8006800F1140200203D
:1002B00004E000F1240201204FF480211368194367
:1002C0001160704770B590F820600468013EA56821
:1002D000012E0DD815F0E05F10D0C5F301600125A7
:1002E00085401D608B687BB14D6843EAC5030DE016
:1002F00000F1240101204FF4802223E000F12401C9
:1003000001204FF400121DE00B685B0504EB0010A8
:10031000D1E903452343C0F88031C0F88451097DF9
:10032000012905D100F5C2710B6843F480730B609D
:100330005168C0F88C1111680122C0F8881100F5CD
:10034000C07100200B681A430A6070BDF0B50268E6
:1003500090F82030013B012B26D8D2F8000201236F
:1003600040F00100C2F800024C69CD6904F01F00A2
:10037000012D03FA00F0D2F81C3223EA0003C2F880
:100380001C326FEA000315D05DBBD2F80C521D4041
:10039000C2F80C5202EBC405CE688F8847EA0646C5
:1003A000C5F840620D4614E0416A41F48021416283
:1003B0000120F0BDD2F80C520543C2F80C5202EBFA
:1003C000C4050E688F8847EA0646C5F8406201F109
:1003D0000C058E682D8802EBC40445EA0645C4F876
:1003E0004452D2F804428F690E69096A44EA000552
:1003F000002F08BF04EA0305C2F80452002ED2F809
:10040000144244EA000508BF04EA03050129C2F8C2
:10041000145204D1D2F81C120843C2F81C02D2F8BC
:10042000000220F00100C2F800020020F0BD704779
:1004300070B590F82040013C012C03D8046839B114
:10044000256906E000F1240101204FF4802271E0CB
:10045000E568AD0764D004EB0114D4F8B05115F091
:100460000405956004F5D875D4F8B06119BFF60895
:100470005660760D16602D6805F00205D56004F50E
:10048000DA75D4F8B46136075ABF2E6806F00F0645
:10049000082616612E68C6F3072696612D684FEA76
:1004A00015455561D4F8B8211A70026802EB0112A3
:1004B000D2F8B8214FEA12225A70026802EB0112F8
:1004C000D2F8B8214FEA12429A70026802EB011288
:1004D000D2F8B8214FEA1262DA70026802EB011218
:1004E000D2F8BC211A71026802EB0112D2F8BC21C9
:1004F0004FEA12225A71026802EB0112D2F8BC21B3
:100500004FEA12429A71026802EB0112D2F8BC2142
:100510004FEA1262DA71006841B100F1100107E0A0
:1005200000F1240101204FF4001203E000F10C015E
:10053000002020220B681A430A6070BD2DE9F84F95
:10054000044600684669D0F804908768D0F80CB07B
:10055000D0F810A0D0F81880F10701D1002545E0AF
:10056000F9070FD001218160B80708D4780720D49B
:10057000380700F1BB80204600F0DAF902E020469F
:1005800000F0D7F90025F80518D520684FF48071E0
:100590008160B80509D478050ED438054EBF05F53D
:1005A0008045204600F0C6F908E0204600F0C3F977
:1005B00004E04FF40065E6E705F50055F80315D5AE
:1005C00020684FF480318160B80309D478030BD4DC
:1005D00038034EBF05F58035204600F0ADF905E043
:1005E000204600F0AAF901E005F50045300707D5DF
:1005F0001BF0100004D02068102145F40075C16084
:10060000700708D51BF0080005D020680821C160DC
:10061000204600F04FF9B00706D52068C068800773
:1006200002D0204600F048F9700607D51AF01000F5
:1006300004D02068102145F480650161B00608D51A
:100640001AF0080005D0206808210161204600F05A
:1006500041F9F00606D520680069800702D02046DF
:1006600000F039F9B00308D519F0100005D0206862
:1006700010214160204600F02FF9F00308D519F051
:10068000080005D0206808214160204600F056F996
:10069000300444D55FEA49703ED506F480705FEAC5
:1006A000887108EA102040EA0500014648BF41F081
:1006B0000201B20558BF01465FEA48700D4648BFC7
:1006C00045F00405700558BF0D46300524D518F0D7
:1006D000700021D010380009052818D8DFE800F094
:1006E00003090C0F121545F0080510E04FF4805572
:1006F00049E745F010050AE045F0200507E045F020
:10070000400504E045F0800501E045F4807520686F
:10071000816921F0700181612068042141603DB14F
:10072000606A284360622046BDE8F84FFFF77FBE4D
:10073000BDE8F88F70B5C0B1044690F8200010B93C
:10074000204600F06FF82068016841F00101016067
:1007500000F02CFA054620684168C90707D100F06F
:1007600025FA401B0B28F6D311E0012070BD01686B
:1007700021F00201016000F019FA05462068416885
:1007800089070BD500F012FA401B0B28F6D3606ADC
:10079000052140F400306062012040E0217E0268C3
:1007A000261D22F08003012908BF42F08003036068
:1007B000617E026822F04003012908BF42F0400335
:1007C0000360A17E026822F02003012908BF42F0E5
:1007D00020030360E17E026842F01003012908BF94
:1007E00022F010030360217F026822F00803012930
:1007F00008BF42F008030360617F026822F004032F
:10080000012908BF42F0040303606ECE1A432A4355
:10081000013932431143C16100200121606284F833
:10082000201070BDB0B586B00021DA4CCDE90411BE
:10083000CDE902110068A4F52442904237D1CE4898
:1008400002AD426842F000724260426802F00072FB
:100850000192019A026842F004020260006800F00E
:10086000040001904FF40060CDE903112946029085
:100870000198204600F0C4F8032029460590022084
:1008800003904FF480500290204600F0B9F81420F5
:100890000021002200F0F4F9142000F0E3F9152003
:1008A0000021002200F0ECF9152000F0DBF906B081
:1008B000B0BD00BF7047000005494A6801F1180348
:1008C00001324A6001F138020021FFF7B1BD00BFDB
:1008D00070000020704770477047B0B5044690F82C
:1008E000200001281BD1022084F820002068016824
:1008F00021F00101016000F059F9054620684068C7
:10090000C00712D000F052F9401B0B28F6D3606AE2
:1009100040F400306062052084F8200003E0606A43
:1009200040F4002060620120B0BD00206062B0BDD4
:1009300070477047704770477047704770470000B6
:10094000B0B590F8211002291CD103681F4C012278
:100950001968A34221F00E011960196821F0010104
:100960001960194912D01A4CA34211D0194CA34254
:1009700010D0194CA34210D0184CA34210D14FF400
:10098000803415E00421816301211BE001240FE084
:1009900010240DE04FF480740AE04FF4805407E017
:1009A00001F168054FF08074AB4208BF4FF480142A
:1009B0000C60002180F8201080F82120426B0AB1E1
:1009C000904700210846B0BD0400024008000240E4
:1009D0001C00024030000240440002405800024027
:1009E000B0B5044600F0E2F805468D48611C007879
:1009F00018BF044400F0DAF8401BA042FAD3B0BD9F
:100A00002DE9FC4F594A04234FF0000B4FF0010829
:100A10004FF00F0E4FF000090025904208BF03234E
:100A200000930B6833FA05F208BFBDE8FC8F08FAA3
:100A300005F2134200F095804F68032F16D9112F4D
:100A400024D0122F26D04D4B9F4213D04C4B9F42A7
:100A500010D04C4B9F420DD04B4B9F420AD04B4B7A
:100A60009F4207D04A4B9F4204D020E0DFE807F0C6
:100A70000216191D8B6833B1012B14BF426102614C
:100A80004FF0080913E04FF0040910E0CB6803F1C0
:100A900004090CE0CB6803F10C0908E0D1F80C90D4
:100AA00005E0CB6803F1080901E04FF000095B465F
:100AB0000646082D28BF203B28BF043637680EFAAB
:100AC00003F409FA03F327EA040423433360CB79E0
:100AD000DB0646D5614C264E0BF00C0C2368A6F5C0
:100AE0007E7643F001032360236803F00103019342
:100AF0000EFA0CF3019CAC0856F8247027EA030A9E
:100B0000244B984208D0244B984207D0234B98425C
:100B1000009B08BF022302E0002300E0012303FA48
:100B20000CF343EA0A0346F82430114C114E4F6887
:100B3000FB02A36854BF93431343A360BB02336813
:100B400054BF934313433360BB03636854BF934361
:100B500013436360FB03236854BF23EA02021A4372
:100B600022600BF1040B01355BE700BF001401406C
:100B7000000401400C040140181002400000111054
:100B8000000012100000211000002210000031109F
:100B90000000321000080140000C0140001001402C
:100BA000002A08BF09040161704700000548006879
:100BB000704700BF1A48034900780A68104408606B
:100BC000704700BF4401002080B58E48016841F0A5
:100BD00010010160032000F06FF80F2000F004F80E
:100BE00000F020F8002080BD70B50D4E04464FF493
:100BF0007A713078B1FBF0F084490968B1FBF0F00C
:100C000000F03EFC01250F2C08D838B94FF0FF301A
:100C100021460022002500F033F87460284670BD9C
:100C20000000002082B00D480222016841F001015D
:100C30000160016801F0010101910199416841F0F1
:100C400080514160406800F0805000900098044856
:100C5000016862F31A61016002B070471810024027
:100C600004000140002808D400F01F0101224009BF
:100C700002FA01F1014A42F82010704700E100E059
:100C800070B5134B4FF0FF351B68C3F30223DC1E16
:100C900083F0070338BF0024042B28BF042305FA80
:100CA00004F605FA03F3B2439943A1401143BDE8AA
:100CB000704000F0ABBD00BF05494FF6FF030A6866
:100CC0001A4060F30A22034810430860704700BFCF
:100CD0000CED00E00000FA052DE9F84300286AD089
:100CE000884648490446086800F0070040450AD293
:100CF000086820F0070040EA08000860086800F073
:100D00000700404557D120684F4B8946810711D5D0
:100D1000410703D5196841F4E0611960010703D563
:100D2000196841F460511960A1681A6822F0F00254
:100D300011431960C00737D1D9F8000000F007004F
:100D400040450DD9D9F8000020F0070040EA08001E
:100D5000C9F80000D9F8000000F0070040452AD18A
:100D60002068410705D5E1681A6822F4E062114362
:100D70001960000706D52069196821F4605141EA1D
:100D8000C00018601C4600F045F821681E4AC1F3F7
:100D90000311515CC8401D4908601D480068FFF7F9
:100DA00023FF0020BDE8F8836068012806D153F8CE
:100DB000041C89030BD40120BDE8F88353F8041CFC
:100DC000022802D18901F6D501E08907F3D5196817
:100DD0001D4621F0030108431860FFF7E7FE0646B1
:100DE00041F28837606829682B4601F00C01B1EBAD
:100DF000800FA1D0FFF7DAFE801BB842F2D90320A2
:100E0000BDE8F88300200240BE1E00080800002054
:100E10000400002010B50C490C480A6802F00C03CD
:100E2000082B07D1C2F3834309A4D203E35C02D4A5
:100E30000C48584310BD096809A25843C1F340410A
:100E4000515CB0FBF1F010BD0410024000127A00BA
:100E500002030405060708090A0B0C0D0E0F1010FB
:100E60000102000000093D002DE9FC41002800F0CE
:100E7000A68004460078C54EC00725D0706800F0F3
:100E80000C0004281AD0706800F00C00082802D169
:100E90007068C00312D46068002800F00C81B0F5BF
:100EA000803F07D03168B0F5A02F40F0388141F481
:100EB00080203060306840F4803036E13068800354
:100EC00002D5606800287AD02078800718D570682D
:100ED00010F00C0F07D0706800F00C00082824D127
:100EE0007068C00321D43068800702D520690128CA
:100EF00065D16069316821F0F80141EAC0003060D5
:100F00002078000741D5A06910B3A1480121C0F89D
:100F10008014FFF74BFE0546706A800728D4FFF760
:100F200045FE401B0228F7D90CE1216998480029A9
:100F300000F09A8001210160FFF738FE0546306815
:100F40008007D6D4FFF732FE401B0228F7D9F9E01C
:100F50008F480021C0F88014FFF728FE0546706A0C
:100F6000800712D5FFF722FE401B0228F7D9E9E0DF
:100F700088484FF4FA510068B0FBF1F0019000BFCF
:100F80000198411E00280191F9D12078400719D419
:100F9000E7698FB1706800F00C00082845D1012F77
:100FA0000DD0216A706800F480328A4207D1616AEC
:100FB00000F47010884202D10020BDE8FC810120BD
:100FC000BDE8FC81F069C0000BD4F0694FF0010866
:100FD00040F08050F061F06900F08050009000987F
:100FE00001E04FF000086C4F3868C0050FD4386836
:100FF00040F480703860FFF7D9FD05463868C005B9
:1010000005D4FFF7D3FD401B6428F7D99AE0E068C8
:10101000D0B3012805D0316A052862D141F004001F
:101020003062306A40F0010061E059490020884692
:101030000866FFF7BBFD0546022F0BD14746306817
:10104000800140F18280FFF7B1FD411B032002299E
:10105000F5D9B2E730688001AED5FFF7A7FD411B97
:1010600003200229F6D9A8E700210160FFF79EFDC1
:101070000546306880077FF543AFFFF797FD411BBA
:1010800003200229F5D998E7306A20F00100306288
:10109000306A20F004003062FFF788FD054641F217
:1010A0008837306A800731D5FFF780FD411B032068
:1010B000B942F6D981E7306820F48030306030687A
:1010C00020F480203060FFF771FD05463068800312
:1010D0007FF5FAAEFFF76AFD411B03206429F5D9BD
:1010E0006BE721F001003062306A20F004003062CA
:1010F000FFF75CFD054641F28837306A800705D46A
:10110000FFF754FD401BB842F7D91BE0B8F1000FC0
:101110003FF43EAFF06920F08050F06138E721F4F1
:1011200080303060306820F480203060FFF73EFD72
:101130000546306880033FF5C7AEFFF737FD401B1B
:101140006428F6D90320BDE8FC81206AB0F5803F11
:1011500005D1A168726822F4003211437160616A9E
:101160000843716821F474110843706001203866E7
:10117000FFF71CFD0446306880013FF51DAFFFF707
:1011800015FD011B03200229F5D916E700100240C6
:10119000000042420800002000700040704700003C
:1011A0001FB504460068416882684B0605D502F009
:1011B0004103012B01D1216C05E00B0608D512F08B
:1011C000020305D0616C204604B0BDE8104008471A
:1011D0008B0610D512F060030DD012F0400316D02C
:1011E00094F85130032B07D100210291C16802917C
:1011F0008068029002981FBD636D43F0040363652D
:1012000000230393C368039383680393039B12F043
:1012100020020CD0626D42F0010262650022019250
:1012200082680192026822F040020260019A626DB7
:10123000002AE0D04268890722F0E00242604FF0C5
:10124000010284F851201CD0416821F00301416063
:10125000E06C40B10E494163FFF772FB18B1606D5D
:1012600040F040006065A06C0028C4D0084941638C
:10127000FFF766FB0028BED0606D40F0400060655F
:101280001FBD204604B0BDE81040FFF787BF00BF78
:10129000AD160008F8B538B10446406A30B10020F8
:1012A000206104F1140007E001254AE06068B0F510
:1012B000827F03D004F11C00002101600025A5629B
:1012C00094F8510000284FF0000007D1204684F820
:1012D000505000F039F8A06A00F40050022184F860
:1012E000511094E84E0002F4827203F404430F6834
:1012F0001A4406F400631A4427F040070F6023697C
:1013000003F002031A44636903F001031A44A3695A
:1013100003F400763244E66906F038063244266A61
:1013200006F08006324310430860042000EA1340B0
:101330004860C86920F40060C8610120656584F8D0
:1013400051002846F8BD000070B586B000261D4C3F
:10135000CDE90466CDE90266006804F520518842B3
:101360002DD1194802AD016841F480510160016836
:1013700001F4805101910199016841F0040101607B
:101380002946006800F00400019003200590022027
:101390000390A020029001982046FFF731FB4020E7
:1013A000CDE90366294602902046FFF729FB23205A
:1013B00000210022FFF764FC2320FFF753FC06B056
:1013C00070BD00BF000801401810024070470000C7
:1013D000F0B590F85040012C01D1022444E00124E2
:1013E00080F8504090F85150012D2ED10124C1B306
:1013F000BAB3B3B390F851401D4FDFF870C0042C5E
:101400001CBF052480F8514000244465C386C3876F
:10141000C6680568002E08BF674647646F68002EDF
:1014200047F0E0076F608263134A01638386838716
:10143000104908BF0A4602642968490611D4296880
:10144000002441F0400129600BE04468B4F5827F3C
:1014500006D10224042D04D18568002DC6D000E0F9
:101460000224002180F850102046F0BDE915000844
:10147000C1150008951500086D150008704700009B
:10148000411E0020B0EB116F1CBF01207047044AC1
:10149000F023516003490B70072190601160704781
:1014A00010E000E023ED00E0FEE7FEE7FEE7704716
:1014B000F8B5264C0121002200262046FFF770FBDC
:1014C000234D0A20A84728480DF102024FF6FF716C
:1014D00002230227FFF77CFF0A20A84720460121AC
:1014E0000122FFF75DFB0A20A847BDF802006FF359
:1014F0009F30ADF8020000F0BEFB164B002200F05A
:1015000033FA154B002200F0C9FB00F085FB134AAB
:101510000446000A02F8100F2420114682F82460C5
:10152000C2E90566C2E90767131FC2F8026054707A
:10153000D68041F8100F02F14400FEF7C3FE0120EF
:10154000A847204600F0A8FCF8BD00BF000C0140F1
:10155000E109000880FFCF40008086407000002035
:101560000148FFF71DBE00BFEC0000200168826B40
:10157000CB6822F8023BC38F013BC3878263C28FD3
:101580002AB94A6822F040024A60C18E01B1704710
:1015900000F040B80168097B826B1170C18F01397E
:1015A000C187816B01318163C18F31B901684A689C
:1015B00022F060024A60C18E01B1704700F02AB883
:1015C000026B016832F8023BCB60C38E013BC386DD
:1015D0000263C28E2AB94A6822F080024A60C18F33
:1015E00001B1704700F016B8026B016812780A73F7
:1015F000C18E0139C186016B01310163C18E31B9E0
:1016000001684A6822F080024A60C18F01B17047C8
:10161000AFF300801CB504465B4845F6C051006836
:10162000B0FBF1F0642148430190FFF7BFFA024696
:101630002068416821F020014160019931B1019990
:101640000139019181688907F7D503E0606D40F0A9
:10165000200060652046642100F02EF818B1606D0E
:1016600040F020006065A06838B900200090206834
:10167000C1680091806800900098606D30B10120D1
:1016800084F851002046FFF789FD1CBD94F85100F5
:10169000012184F85110042803D12046FFF796FE5B
:1016A0001CBD2046FFF7EAFE1CBD00BF406A0021BA
:1016B000C187C186FFF772BD10B513460A46802167
:1016C000044600F009F828B1606D40F02000606524
:1016D000032010BD002010BD2DE9FC411E46174619
:1016E0000D468046FFF762FA301AC419FFF75EFA1A
:1016F0000646254801370068C0F3CB3060430190AF
:10170000D8F8000081682940A9420ED1002FF9D0F5
:10171000FFF74CFA801BA0420AD2019801990139C7
:101720000028019108BF0446EAE70020BDE8FC81DB
:10173000D8E900014268B1F5827F22F0E002426000
:101740000BD1D8F80810B1F5004F02D0B1F5806F79
:1017500003D1016821F040010160D8F82810B1F5EB
:10176000005F07D1016821F400510160016841F474
:1017700000510160002088F85000012088F85100D5
:101780000320BDE8FC8100BF080000207047FFF780
:1017900011BAB0B590B0002401A81421CDE90B44D2
:1017A000CDE90944FEF710FD4FF4E01002250121B8
:1017B00008940F904FF480300D950A910E90CDE96A
:1017C000061006A8FFF750FB18B1EFF3108072B6B1
:1017D000FEE74FF4806005940221CDE903400F201D
:1017E000CDE9010501A8FFF777FA18B1EFF31080F2
:1017F00072B6FEE710B0B0BD704700000148FEF7BA
:101800009DBE00BFC4000020FEE7000010B5074CDD
:1018100000F00F03044AB0F1FF3F2344C8BF831810
:101820000801187010BD00BF00E400E014ED00E0F6
:101830008AB0FFF7C9F9FFF7ACFF4748474C0022D1
:1018400001270025016804F5284841F020010160C6
:10185000016801F0200100910099016841F0040144
:101860000160016801F0040100910099016841F0F4
:10187000080101600121006800F008000090009854
:101880004046FFF78DF902206946CDE902504046F7
:10189000CDE90077FFF7B4F831480A21A1464FF4AB
:1018A00000724FF400634FF4827604F54C44C0E9B3
:1018B0000855C0E90A512021C0E90046C0E9025399
:1018C000C0E90457C0E90621FFF7E4FC18B1EFF3C3
:1018D000108072B6FEE7234F4FF480114FF4602260
:1018E0000823384640F8549FC0E90135C0E9035247
:1018F000C0E905158583FEF71DFF18B1EFF31080D1
:1019000072B6FEE70A206D460024012614210590D8
:10191000284606940896FEF757FC079607F15406EA
:10192000294609943046FEF711FD3046FEF7D5FFF3
:1019300030460221FEF7B3FC404601210122FFF7A9
:101940002FF9386801303860FFF7B2FDB860C82061
:10195000FFF746F8F5E700BF1810024000640040AA
:10196000EC000020700000202DE9C04130B4DFF809
:10197000A0C23CEA111418BF3CEA131400F0EC803A
:101980001CEA111481EA030544EAD57418BF1CEA65
:10199000131500F0C780A4EB050404F17F7404F56F
:1019A00000344FF0004545EAC12145EAC32341EA2E
:1019B000505143EA52534FEAC0204FEAC2229942A3
:1019C00008BF904200F09C804FEA13650FF240166A
:1019D000765D4FEA134506FB05F7C7F1807706FBF6
:1019E00007F74FEAD737A7FB03687642A7FB06CE77
:1019F000C8F5803838BFA8F1010807FB08E6A6FB48
:101A0000028C4FF0000EE6FB03CEDCF1000CCEF1B1
:101A1000004E38BFAEF1010EA6FB0C584FF0000788
:101A2000E6FB0E87A1FB08C6A0FB07CE16EB0E0651
:101A30004FF0000545F10005E1FB076515F1E04EAB
:101A40007EBFA4F580345FEA46066D4116F180073B
:101A500045F100054FEA172747EA05674FEA1525C4
:101A60004FEA0666A6F1DE46B6F1805F1FD938461A
:101A700005EBC47124F0010C01EB0C11BCF1FE6FFD
:101A800002D8F0BCBDE8008124425CBF01F5801E95
:101A90009EEAC47F02D4F0BCBDE80081244238D461
:101AA000A1F1C041F0BCBDE8004100F0EFB94FEA40
:101AB000D02040EA41504FEAD1214FEAD22242EAF7
:101AC00043524FEAD323A7FB028607FB036605FBBD
:101AD00002661EEA0E0F58BFA6EB0056B6EB005684
:101AE0004FEA520E4EEAC37E18EB0E0E56EB530E23
:101AF000BDD518EB02085E417F1C55F10005B6E725
:101B00004FF480154FF000074FF000064FF000082B
:101B1000ADE701F1C04101F000414FF00000F0BC21
:101B2000BDE800810CEA131511EA0C1F00D00CE08F
:101B300013EA0C1F00F025804FF0000081EA03013A
:101B400001F00041F0BCBDE80081F0BCBDE80041FF
:101B500081EA030100F09AB9F0BCBDE8004170B51C
:101B600000F046F9097EFC3E00F007B84FF0000097
:101B700081EA030101F00041704781EA030100F0AE
:101B800085B9F0BCBDE8004122494FF00000704724
:101B9000FFFDFBF9F7F5F4F2F0EEEDEBE9E8E6E432
:101BA000E3E1E0DEDDDBDAD8D7D5D4D3D1D0CFCDB9
:101BB000CCCBCAC8C7C6C5C4C2C1C0BFBEBDBCBBF2
:101BC000BAB9B8B7B6B5B4B3B2B1B0AFAEADACABED
:101BD000AAA9A8A8A7A6A5A4A3A3A2A1A09F9F9EC7
:101BE0009D9C9C9B9A999998979796959594939379
:101BF000929191908F8F8E8E8D8C8C8B8B8A898910
:101C00008888878786858584848383828281818092
:101C10000000FF070000F87F4FEA41034FEA5353EB
:101C2000A3F58063D3F11E03C8BFD3F1210C0CDDF3
:101C30004FF0004242EAC12242EA505232FA03FC1B
:101C40008CEAE17CACEBE1707047102BC4BF002044
:101C5000704703F5787CBCF1FF3F04D06FF0004281
:101C600082EA2100704770B500F0C2F849922480E2
:101C700000207047F2E7B0FA80F310FA03F10AD0BF
:101C8000C3F11D0303F580634FEA03524FEA41504D
:101C900002EBD12170474FF00000704770B5DFF8BC
:101CA00048C11CEA111E1EBF1CEA13159EEA0C0F48
:101CB00095EA0C0F00F06F8081EA03044EEAD47EAF
:101CC000AE4421EA4C1123EA4C1341F4801143F451
:101CD0008013AEF17F7EA1FB024CA0FB0365361999
:101CE00055EB0C05A1FB034C4CF10003A0FB021CBF
:101CF00016EB0C06654153F10003094218BF46F08C
:101D0000010613F4007F0BD14FEA03314FEA05308F
:101D100041EA155140EA165034036FF003020AE01D
:101D20004FEAC3214FEAC52041EA555140EA5650D7
:101D3000F4026FF0020202EB2E4201EB025585EA3B
:101D4000CE710AD05FEA440C18BF24F0004450F171
:101D5000000041F1000120EAD47040F2FE7C6245AF
:101D600000D270BDA84214BF4FF080444FF04044F1
:101D7000002E08BF0024BEF1806FA8BFA1F1C041B2
:101D8000BDE8704080F2828001F1C04101F0004165
:101D90004FF0000070470CEA13159EEA0C0F18BFB5
:101DA00095EA0C0F06D081EA030E4FF000000EF00A
:101DB000004170BD00F01CF88900013E00F007B83A
:101DC00000F009B84FEA430C5FEA5C5C08D081EA96
:101DD000030100F05BB84FEA410C5FEA5C5CF6D1AE
:101DE00002494FF0000070470000FF070000F87F35
:101DF0000EF1020E2EF0030E5EF8046B364205D48F
:101E0000012A43EB030515F5001F12D8012841EB09
:101E1000010C1CF5001F0CD80ED14FEAD17C0CEB45
:101E20004C0C0CF1020C15F5001F08BF4CEBD37CD9
:101E300004E04FF0080C01E04FEAD37C0CEB4C05BA
:101E400026FA05F606F00706B6F1040C06D20EEBEC
:101E5000860CBDE870404CF0010C6047DFE80CF0E8
:101E6000090B02024FF00041A1F500214FF00000E4
:101E700070BD19461046012851EB010418BFD4F576
:101E8000001484BF002001F0004170BD0808A0F5D7
:101E900000114FEA31017047B0FA80F310FA03F2F3
:101EA000C3F19D030AD0D90501EB1220530638BFB8
:101EB000704700F1010008BF20F0010070470000EA
:101EC00000000000000001020304060708090000EA
:101ED000F01E00080000002010000000280100088B
:101EE000001F00081000002038070000440100080F
:101EF00001000000100000000024F40000000000B9
:04000005080000ED02
:00000001FF
